{
  "contractName": "SecureMoneyExchange",
  "abi": [
    {
      "constant": false,
      "inputs": [
        {
          "name": "_username",
          "type": "bytes32"
        },
        {
          "name": "_passphrase",
          "type": "string"
        }
      ],
      "name": "setupAccount",
      "outputs": [
        {
          "name": "",
          "type": "uint256"
        }
      ],
      "payable": false,
      "stateMutability": "nonpayable",
      "type": "function"
    },
    {
      "constant": true,
      "inputs": [
        {
          "name": "_id",
          "type": "uint256"
        }
      ],
      "name": "viewAccountBalance",
      "outputs": [
        {
          "name": "",
          "type": "uint256"
        }
      ],
      "payable": false,
      "stateMutability": "view",
      "type": "function"
    },
    {
      "constant": false,
      "inputs": [
        {
          "name": "_fromId",
          "type": "uint256"
        },
        {
          "name": "_toId",
          "type": "uint256"
        },
        {
          "name": "_passphrase",
          "type": "string"
        },
        {
          "name": "_amt",
          "type": "uint256"
        }
      ],
      "name": "sendFunds",
      "outputs": [
        {
          "name": "",
          "type": "uint256"
        }
      ],
      "payable": false,
      "stateMutability": "nonpayable",
      "type": "function"
    }
  ],
  "bytecode": "0x60806040526000805534801561001457600080fd5b50610502806100246000396000f3fe608060405234801561001057600080fd5b50600436106100415760003560e01c80632bd084491461004657806336bdee931461008857806362d1ed8914610161575b600080fd5b6100726004803603602081101561005c57600080fd5b810190808035906020019092919050505061024e565b6040518082815260200191505060405180910390f35b61014b6004803603604081101561009e57600080fd5b8101908080359060200190929190803590602001906401000000008111156100c557600080fd5b8201836020820111156100d757600080fd5b803590602001918460018302840111640100000000831117156100f957600080fd5b91908080601f016020809104026020016040519081016040528093929190818152602001838380828437600081840152601f19601f82011690508083019250505050505050919291929050505061026e565b6040518082815260200191505060405180910390f35b6102386004803603608081101561017757600080fd5b810190808035906020019092919080359060200190929190803590602001906401000000008111156101a857600080fd5b8201836020820111156101ba57600080fd5b803590602001918460018302840111640100000000831117156101dc57600080fd5b91908080601f016020809104026020016040519081016040528093929190818152602001838380828437600081840152601f19601f82011690508083019250505050505050919291929080359060200190929190505050610293565b6040518082815260200191505060405180910390f35b600060016000838152602001908152602001600020600201549050919050565b600061027a83836103b3565b5061028860005460646104a5565b600054905092915050565b6000826040516020018082805190602001908083835b602083106102cc57805182526020820191506020810190506020830392506102a9565b6001836020036101000a0380198251168184511680821785525050505050509050019150506040516020818303038152906040528051906020012060016000878152602001908152602001600020600301541461032857600080fd5b8160016000878152602001908152602001600020600201541161034a57600080fd5b81600160008781526020019081526020016000206002016000828254039250508190555081600160008681526020019081526020016000206002016000828254019250508190555060016000858152602001908152602001600020600201549050949350505050565b600080600081548092919060010191905055506040518060800160405280600054815260200184815260200160008152602001836040516020018082805190602001908083835b6020831061041d57805182526020820191506020810190506020830392506103fa565b6001836020036101000a03801982511681845116808217855250505050505090500191505060405160208183030381529060405280519060200120815250600160008054815260200190815260200160002060008201518160000155602082015181600101556040820151816002015560608201518160030155905050600054905092915050565b806001600084815260200190815260200160002060020160008282540192505081905550505056fea265627a7a72305820231a45a68ae5d9891dcac6216d257e87a193510baa541115004657711444453664736f6c634300050a0032",
  "source": "pragma solidity ^0.5.10;\n\ncontract SecureMoneyExchange {\n        struct User {\n                uint id;\n                bytes32 username;\n                uint funds;\n                bytes32 passphrase; // save the password encrypted!\n        }\n\n        uint genUserId = 0;\n        mapping(uint => User) private users;\n\n        function _createUser(bytes32 _username, string memory  _passphrase) internal returns(uint) {\n                genUserId++;\n                users[genUserId] = User(genUserId, _username, 0, keccak256(abi.encodePacked(_passphrase)));\n                return genUserId;\n        }\n        \n        // Function to populate accounts with cash for testing purposes\n        function _dripFunds(uint _id, uint _amt) internal {\n                users[_id].funds += _amt;\n        }\n        \n        function setupAccount(bytes32 _username, string memory _passphrase) public returns(uint) {\n                _createUser(_username, _passphrase);\n                _dripFunds(genUserId, 100);\n                return genUserId;\n        }\n\n        function viewAccountBalance(uint _id) public view returns(uint) {\n                return users[_id].funds;\n        }\n\n        function sendFunds(uint _fromId, uint _toId, string memory _passphrase, uint _amt) public  returns(uint) {\n                require(users[_fromId].passphrase == keccak256(abi.encodePacked(_passphrase))); // Check hashes of password in DB against inserted PW\n                require(users[_fromId].funds > _amt);\n                users[_fromId].funds -= _amt;\n                users[_toId].funds += _amt;\n\n                return users[_toId].funds;\n        }\n\n}\n",
  "sourcePath": "/home/sam/Documents/Uni/INFOSEC/Paper 4/INFOSEC-OWASP2017-Demo/sensitive_data_exposure/contracts/SecureMoneyExchange.sol",
  "compiler": {
    "name": "solc",
    "version": "0.5.10+commit.5a6ea5b1.Emscripten.clang"
  },
  "schemaVersion": "3.3.3",
  "updatedAt": "2021-01-08T20:51:19.033Z",
  "networkType": "ethereum",
  "devdoc": {
    "methods": {}
  },
  "userdoc": {
    "methods": {}
  }
}