{
  "contractName": "MoneyExchange",
  "abi": [
    {
      "constant": true,
      "inputs": [
        {
          "name": "",
          "type": "uint256"
        }
      ],
      "name": "users",
      "outputs": [
        {
          "name": "id",
          "type": "uint256"
        },
        {
          "name": "username",
          "type": "bytes32"
        },
        {
          "name": "funds",
          "type": "uint256"
        },
        {
          "name": "passphrase",
          "type": "string"
        }
      ],
      "payable": false,
      "stateMutability": "view",
      "type": "function"
    },
    {
      "constant": false,
      "inputs": [
        {
          "name": "_username",
          "type": "bytes32"
        },
        {
          "name": "_passphrase",
          "type": "string"
        }
      ],
      "name": "setupAccount",
      "outputs": [
        {
          "name": "",
          "type": "uint256"
        }
      ],
      "payable": false,
      "stateMutability": "nonpayable",
      "type": "function"
    },
    {
      "constant": true,
      "inputs": [
        {
          "name": "_id",
          "type": "uint256"
        }
      ],
      "name": "viewAccountBalance",
      "outputs": [
        {
          "name": "",
          "type": "uint256"
        }
      ],
      "payable": false,
      "stateMutability": "view",
      "type": "function"
    },
    {
      "constant": false,
      "inputs": [
        {
          "name": "_fromId",
          "type": "uint256"
        },
        {
          "name": "_toId",
          "type": "uint256"
        },
        {
          "name": "_passphrase",
          "type": "string"
        },
        {
          "name": "_amt",
          "type": "uint256"
        }
      ],
      "name": "sendFunds",
      "outputs": [
        {
          "name": "",
          "type": "uint256"
        }
      ],
      "payable": false,
      "stateMutability": "nonpayable",
      "type": "function"
    }
  ],
  "bytecode": "0x60806040526000805534801561001457600080fd5b50610750806100246000396000f3fe608060405234801561001057600080fd5b506004361061004c5760003560e01c80632bd0844914610051578063365b98b21461009357806336bdee931461014f57806362d1ed8914610228575b600080fd5b61007d6004803603602081101561006757600080fd5b8101908080359060200190929190505050610315565b6040518082815260200191505060405180910390f35b6100bf600480360360208110156100a957600080fd5b8101908080359060200190929190505050610335565b6040518085815260200184815260200183815260200180602001828103825283818151815260200191508051906020019080838360005b838110156101115780820151818401526020810190506100f6565b50505050905090810190601f16801561013e5780820380516001836020036101000a031916815260200191505b509550505050505060405180910390f35b6102126004803603604081101561016557600080fd5b81019080803590602001909291908035906020019064010000000081111561018c57600080fd5b82018360208201111561019e57600080fd5b803590602001918460018302840111640100000000831117156101c057600080fd5b91908080601f016020809104026020016040519081016040528093929190818152602001838380828437600081840152601f19601f8201169050808301925050505050505091929192905050506103fd565b6040518082815260200191505060405180910390f35b6102ff6004803603608081101561023e57600080fd5b8101908080359060200190929190803590602001909291908035906020019064010000000081111561026f57600080fd5b82018360208201111561028157600080fd5b803590602001918460018302840111640100000000831117156102a357600080fd5b91908080601f016020809104026020016040519081016040528093929190818152602001838380828437600081840152601f19601f82011690508083019250505050505050919291929080359060200190929190505050610422565b6040518082815260200191505060405180910390f35b600060016000838152602001908152602001600020600201549050919050565b6001602052806000526040600020600091509050806000015490806001015490806002015490806003018054600181600116156101000203166002900480601f0160208091040260200160405190810160405280929190818152602001828054600181600116156101000203166002900480156103f35780601f106103c8576101008083540402835291602001916103f3565b820191906000526020600020905b8154815290600101906020018083116103d657829003601f168201915b5050505050905084565b600061040983836105ba565b50610417600054606461064e565b600054905092915050565b6000826040516020018082805190602001908083835b6020831061045b5780518252602082019150602081019050602083039250610438565b6001836020036101000a0380198251168184511680821785525050505050509050019150506040516020818303038152906040528051906020012060016000878152602001908152602001600020600301604051602001808280546001816001161561010002031660029004801561050a5780601f106104e857610100808354040283529182019161050a565b820191906000526020600020905b8154815290600101906020018083116104f6575b5050915050604051602081830303815290604052805190602001201461052f57600080fd5b8160016000878152602001908152602001600020600201541161055157600080fd5b81600160008781526020019081526020016000206002016000828254039250508190555081600160008681526020019081526020016000206002016000828254019250508190555060016000858152602001908152602001600020600201549050949350505050565b600080600081548092919060010191905055506040518060800160405280600054815260200184815260200160008152602001838152506001600080548152602001908152602001600020600082015181600001556020820151816001015560408201518160020155606082015181600301908051906020019061063f929190610676565b50905050600054905092915050565b8060016000848152602001908152602001600020600201600082825401925050819055505050565b828054600181600116156101000203166002900490600052602060002090601f016020900481019282601f106106b757805160ff19168380011785556106e5565b828001600101855582156106e5579182015b828111156106e45782518255916020019190600101906106c9565b5b5090506106f291906106f6565b5090565b61071891905b808211156107145760008160009055506001016106fc565b5090565b9056fea265627a7a72305820724ef89dde56988bb5026e1f9b05794cf4d37d7f3ba359e7b05e166194f28e6d64736f6c634300050a0032",
  "source": "pragma solidity ^0.5.10;\n\ncontract MoneyExchange {\n        struct User {\n                uint id;\n                bytes32 username;\n                uint funds;\n                string passphrase; // stored in plaintext!\n        }\n\n        uint genUserId = 0;\n        mapping(uint => User) public users;\n\n        function _createUser(bytes32 _username, string memory  _passphrase) internal returns(uint) {\n                genUserId++;\n                users[genUserId] = User(genUserId, _username, 0, _passphrase);\n                return genUserId;\t\n        }\n        \n        // Function to populate accounts with cash for testing purposes\n        function _dripFunds(uint _id, uint _amt) internal {\n                users[_id].funds += _amt;\n        }\n        \n        function setupAccount(bytes32 _username, string memory _passphrase) public returns(uint) {\n                _createUser(_username, _passphrase);\n                _dripFunds(genUserId, 100);\n                return genUserId;\n        }\n\n        function viewAccountBalance(uint _id) public view returns(uint) {\n                return users[_id].funds;\n        }\n\n        function sendFunds(uint _fromId, uint _toId, string memory _passphrase, uint _amt) public  returns(uint) {\n                require(keccak256(abi.encodePacked(users[_fromId].passphrase)) == keccak256(abi.encodePacked(_passphrase))); // Check hashes of password in DB against inserted PW\n                require(users[_fromId].funds > _amt);\n                users[_fromId].funds -= _amt;\n                users[_toId].funds += _amt;\n\n                return users[_toId].funds;\n        }\n\n}\n",
  "sourcePath": "/home/sam/Documents/Uni/INFOSEC/Paper 4/INFOSEC-OWASP2017-Demo/sensitive_data_exposure/contracts/MoneyExchange.sol",
  "compiler": {
    "name": "solc",
    "version": "0.5.10+commit.5a6ea5b1.Emscripten.clang"
  },
  "schemaVersion": "3.3.3",
  "updatedAt": "2021-01-08T20:51:19.020Z",
  "networkType": "ethereum",
  "devdoc": {
    "methods": {}
  },
  "userdoc": {
    "methods": {}
  }
}